{
  "contractName": "RocketToken",
  "abi": [
    {
      "inputs": [],
      "stateMutability": "nonpayable",
      "type": "constructor"
    },
    {
      "anonymous": false,
      "inputs": [
        {
          "indexed": true,
          "internalType": "address",
          "name": "owner",
          "type": "address"
        },
        {
          "indexed": true,
          "internalType": "address",
          "name": "spender",
          "type": "address"
        },
        {
          "indexed": false,
          "internalType": "uint256",
          "name": "value",
          "type": "uint256"
        }
      ],
      "name": "Approval",
      "type": "event"
    },
    {
      "anonymous": false,
      "inputs": [
        {
          "indexed": true,
          "internalType": "address",
          "name": "previousOwner",
          "type": "address"
        },
        {
          "indexed": true,
          "internalType": "address",
          "name": "newOwner",
          "type": "address"
        }
      ],
      "name": "OwnershipTransferred",
      "type": "event"
    },
    {
      "anonymous": false,
      "inputs": [
        {
          "indexed": false,
          "internalType": "address",
          "name": "account",
          "type": "address"
        }
      ],
      "name": "Paused",
      "type": "event"
    },
    {
      "anonymous": false,
      "inputs": [
        {
          "indexed": true,
          "internalType": "address",
          "name": "from",
          "type": "address"
        },
        {
          "indexed": true,
          "internalType": "address",
          "name": "to",
          "type": "address"
        },
        {
          "indexed": false,
          "internalType": "uint256",
          "name": "value",
          "type": "uint256"
        }
      ],
      "name": "Transfer",
      "type": "event"
    },
    {
      "anonymous": false,
      "inputs": [
        {
          "indexed": false,
          "internalType": "address",
          "name": "account",
          "type": "address"
        }
      ],
      "name": "Unpaused",
      "type": "event"
    },
    {
      "inputs": [],
      "name": "DOMAIN_SEPARATOR",
      "outputs": [
        {
          "internalType": "bytes32",
          "name": "",
          "type": "bytes32"
        }
      ],
      "stateMutability": "view",
      "type": "function"
    },
    {
      "inputs": [
        {
          "internalType": "address",
          "name": "owner",
          "type": "address"
        },
        {
          "internalType": "address",
          "name": "spender",
          "type": "address"
        }
      ],
      "name": "allowance",
      "outputs": [
        {
          "internalType": "uint256",
          "name": "",
          "type": "uint256"
        }
      ],
      "stateMutability": "view",
      "type": "function"
    },
    {
      "inputs": [
        {
          "internalType": "address",
          "name": "spender",
          "type": "address"
        },
        {
          "internalType": "uint256",
          "name": "amount",
          "type": "uint256"
        }
      ],
      "name": "approve",
      "outputs": [
        {
          "internalType": "bool",
          "name": "",
          "type": "bool"
        }
      ],
      "stateMutability": "nonpayable",
      "type": "function"
    },
    {
      "inputs": [
        {
          "internalType": "address",
          "name": "account",
          "type": "address"
        }
      ],
      "name": "balanceOf",
      "outputs": [
        {
          "internalType": "uint256",
          "name": "",
          "type": "uint256"
        }
      ],
      "stateMutability": "view",
      "type": "function"
    },
    {
      "inputs": [
        {
          "internalType": "address",
          "name": "spender",
          "type": "address"
        },
        {
          "internalType": "uint256",
          "name": "subtractedValue",
          "type": "uint256"
        }
      ],
      "name": "decreaseAllowance",
      "outputs": [
        {
          "internalType": "bool",
          "name": "",
          "type": "bool"
        }
      ],
      "stateMutability": "nonpayable",
      "type": "function"
    },
    {
      "inputs": [
        {
          "internalType": "address",
          "name": "spender",
          "type": "address"
        },
        {
          "internalType": "uint256",
          "name": "addedValue",
          "type": "uint256"
        }
      ],
      "name": "increaseAllowance",
      "outputs": [
        {
          "internalType": "bool",
          "name": "",
          "type": "bool"
        }
      ],
      "stateMutability": "nonpayable",
      "type": "function"
    },
    {
      "inputs": [
        {
          "internalType": "address",
          "name": "",
          "type": "address"
        }
      ],
      "name": "lastFaucetRequest",
      "outputs": [
        {
          "internalType": "uint256",
          "name": "",
          "type": "uint256"
        }
      ],
      "stateMutability": "view",
      "type": "function"
    },
    {
      "inputs": [],
      "name": "name",
      "outputs": [
        {
          "internalType": "string",
          "name": "",
          "type": "string"
        }
      ],
      "stateMutability": "view",
      "type": "function"
    },
    {
      "inputs": [
        {
          "internalType": "address",
          "name": "owner",
          "type": "address"
        }
      ],
      "name": "nonces",
      "outputs": [
        {
          "internalType": "uint256",
          "name": "",
          "type": "uint256"
        }
      ],
      "stateMutability": "view",
      "type": "function"
    },
    {
      "inputs": [],
      "name": "owner",
      "outputs": [
        {
          "internalType": "address",
          "name": "",
          "type": "address"
        }
      ],
      "stateMutability": "view",
      "type": "function"
    },
    {
      "inputs": [],
      "name": "paused",
      "outputs": [
        {
          "internalType": "bool",
          "name": "",
          "type": "bool"
        }
      ],
      "stateMutability": "view",
      "type": "function"
    },
    {
      "inputs": [
        {
          "internalType": "address",
          "name": "owner",
          "type": "address"
        },
        {
          "internalType": "address",
          "name": "spender",
          "type": "address"
        },
        {
          "internalType": "uint256",
          "name": "value",
          "type": "uint256"
        },
        {
          "internalType": "uint256",
          "name": "deadline",
          "type": "uint256"
        },
        {
          "internalType": "uint8",
          "name": "v",
          "type": "uint8"
        },
        {
          "internalType": "bytes32",
          "name": "r",
          "type": "bytes32"
        },
        {
          "internalType": "bytes32",
          "name": "s",
          "type": "bytes32"
        }
      ],
      "name": "permit",
      "outputs": [],
      "stateMutability": "nonpayable",
      "type": "function"
    },
    {
      "inputs": [],
      "name": "renounceOwnership",
      "outputs": [],
      "stateMutability": "nonpayable",
      "type": "function"
    },
    {
      "inputs": [],
      "name": "symbol",
      "outputs": [
        {
          "internalType": "string",
          "name": "",
          "type": "string"
        }
      ],
      "stateMutability": "view",
      "type": "function"
    },
    {
      "inputs": [],
      "name": "totalSupply",
      "outputs": [
        {
          "internalType": "uint256",
          "name": "",
          "type": "uint256"
        }
      ],
      "stateMutability": "view",
      "type": "function"
    },
    {
      "inputs": [
        {
          "internalType": "address",
          "name": "to",
          "type": "address"
        },
        {
          "internalType": "uint256",
          "name": "amount",
          "type": "uint256"
        }
      ],
      "name": "transfer",
      "outputs": [
        {
          "internalType": "bool",
          "name": "",
          "type": "bool"
        }
      ],
      "stateMutability": "nonpayable",
      "type": "function"
    },
    {
      "inputs": [
        {
          "internalType": "address",
          "name": "from",
          "type": "address"
        },
        {
          "internalType": "address",
          "name": "to",
          "type": "address"
        },
        {
          "internalType": "uint256",
          "name": "amount",
          "type": "uint256"
        }
      ],
      "name": "transferFrom",
      "outputs": [
        {
          "internalType": "bool",
          "name": "",
          "type": "bool"
        }
      ],
      "stateMutability": "nonpayable",
      "type": "function"
    },
    {
      "inputs": [
        {
          "internalType": "address",
          "name": "newOwner",
          "type": "address"
        }
      ],
      "name": "transferOwnership",
      "outputs": [],
      "stateMutability": "nonpayable",
      "type": "function"
    },
    {
      "inputs": [],
      "name": "pause",
      "outputs": [],
      "stateMutability": "nonpayable",
      "type": "function"
    },
    {
      "inputs": [],
      "name": "unpause",
      "outputs": [],
      "stateMutability": "nonpayable",
      "type": "function"
    },
    {
      "inputs": [
        {
          "internalType": "address",
          "name": "to",
          "type": "address"
        },
        {
          "internalType": "uint256",
          "name": "amount",
          "type": "uint256"
        }
      ],
      "name": "mint",
      "outputs": [],
      "stateMutability": "nonpayable",
      "type": "function"
    },
    {
      "inputs": [
        {
          "internalType": "address",
          "name": "requester",
          "type": "address"
        }
      ],
      "name": "faucet",
      "outputs": [],
      "stateMutability": "nonpayable",
      "type": "function"
    },
    {
      "inputs": [],
      "name": "decimals",
      "outputs": [
        {
          "internalType": "uint8",
          "name": "",
          "type": "uint8"
        }
      ],
      "stateMutability": "view",
      "type": "function"
    }
  ],
  "bytecode": "0x6101406040523480156200001257600080fd5b506040518060400160405280600b81526020017f526f636b6574546f6b656e000000000000000000000000000000000000000000815250806040518060400160405280600181526020017f31000000000000000000000000000000000000000000000000000000000000008152506040518060400160405280600b81526020017f526f636b6574546f6b656e0000000000000000000000000000000000000000008152506040518060400160405280600681526020017f524f434b4554000000000000000000000000000000000000000000000000000081525081600390805190602001906200010492919062000564565b5080600490805190602001906200011d92919062000564565b5050506000600560006101000a81548160ff0219169083151502179055506200015b6200014f6200023e60201b60201c565b6200024660201b60201c565b60008280519060200120905060008280519060200120905060007f8b73c3c69bb8fe3d512ecc4cf759cc79239f7b179b0ffacaa9a75d522b39400f90508260e081815250508161010081815250504660a08181525050620001c48184846200030c60201b60201c565b608081815250503073ffffffffffffffffffffffffffffffffffffffff1660c08173ffffffffffffffffffffffffffffffffffffffff168152505080610120818152505050505050505062000222336103e86200034860201b60201c565b6200023830633b9aca006200034860201b60201c565b620008ef565b600033905090565b6000600560019054906101000a900473ffffffffffffffffffffffffffffffffffffffff16905081600560016101000a81548173ffffffffffffffffffffffffffffffffffffffff021916908373ffffffffffffffffffffffffffffffffffffffff1602179055508173ffffffffffffffffffffffffffffffffffffffff168173ffffffffffffffffffffffffffffffffffffffff167f8be0079c531659141344cd1fd0a4f28419497f9722a3daafe3b4186f6b6457e060405160405180910390a35050565b60008383834630604051602001620003299594939291906200068f565b6040516020818303038152906040528051906020012090509392505050565b600073ffffffffffffffffffffffffffffffffffffffff168273ffffffffffffffffffffffffffffffffffffffff161415620003bb576040517f08c379a0000000000000000000000000000000000000000000000000000000008152600401620003b2906200074d565b60405180910390fd5b620003cf60008383620004c160201b60201c565b8060026000828254620003e391906200079e565b92505081905550806000808473ffffffffffffffffffffffffffffffffffffffff1673ffffffffffffffffffffffffffffffffffffffff16815260200190815260200160002060008282546200043a91906200079e565b925050819055508173ffffffffffffffffffffffffffffffffffffffff16600073ffffffffffffffffffffffffffffffffffffffff167fddf252ad1be2c89b69c2b068fc378daa952ba7f163c4a11628f55a4df523b3ef83604051620004a19190620007fb565b60405180910390a3620004bd60008383620004ee60201b60201c565b5050565b620004d1620004f360201b60201c565b620004e98383836200054860201b62000b361760201c565b505050565b505050565b620005036200054d60201b60201c565b1562000546576040517f08c379a00000000000000000000000000000000000000000000000000000000081526004016200053d9062000868565b60405180910390fd5b565b505050565b6000600560009054906101000a900460ff16905090565b8280546200057290620008b9565b90600052602060002090601f016020900481019282620005965760008555620005e2565b82601f10620005b157805160ff1916838001178555620005e2565b82800160010185558215620005e2579182015b82811115620005e1578251825591602001919060010190620005c4565b5b509050620005f19190620005f5565b5090565b5b8082111562000610576000816000905550600101620005f6565b5090565b6000819050919050565b620006298162000614565b82525050565b6000819050919050565b62000644816200062f565b82525050565b600073ffffffffffffffffffffffffffffffffffffffff82169050919050565b600062000677826200064a565b9050919050565b62000689816200066a565b82525050565b600060a082019050620006a660008301886200061e565b620006b560208301876200061e565b620006c460408301866200061e565b620006d3606083018562000639565b620006e260808301846200067e565b9695505050505050565b600082825260208201905092915050565b7f45524332303a206d696e7420746f20746865207a65726f206164647265737300600082015250565b600062000735601f83620006ec565b91506200074282620006fd565b602082019050919050565b60006020820190508181036000830152620007688162000726565b9050919050565b7f4e487b7100000000000000000000000000000000000000000000000000000000600052601160045260246000fd5b6000620007ab826200062f565b9150620007b8836200062f565b9250827fffffffffffffffffffffffffffffffffffffffffffffffffffffffffffffffff03821115620007f057620007ef6200076f565b5b828201905092915050565b600060208201905062000812600083018462000639565b92915050565b7f5061757361626c653a2070617573656400000000000000000000000000000000600082015250565b600062000850601083620006ec565b91506200085d8262000818565b602082019050919050565b60006020820190508181036000830152620008838162000841565b9050919050565b7f4e487b7100000000000000000000000000000000000000000000000000000000600052602260045260246000fd5b60006002820490506001821680620008d257607f821691505b60208210811415620008e957620008e86200088a565b5b50919050565b60805160a05160c05160e0516101005161012051612a1b6200093f60003960006110c90152600061110b015260006110ea0152600061101f015260006110750152600061109e0152612a1b6000f3fe608060405234801561001057600080fd5b506004361061014d5760003560e01c8063715018a6116100c3578063a9059cbb1161007c578063a9059cbb1461037e578063b86d1d63146103ae578063d505accf146103ca578063d5ace7ba146103e6578063dd62ed3e14610416578063f2fde38b146104465761014d565b8063715018a6146102ce5780637ecebe00146102d85780638456cb59146103085780638da5cb5b1461031257806395d89b4114610330578063a457c2d71461034e5761014d565b80633644e515116101155780633644e5151461020c578063395093511461022a5780633f4ba83a1461025a57806340c10f19146102645780635c975abb1461028057806370a082311461029e5761014d565b806306fdde0314610152578063095ea7b31461017057806318160ddd146101a057806323b872dd146101be578063313ce567146101ee575b600080fd5b61015a610462565b60405161016791906119fe565b60405180910390f35b61018a60048036038101906101859190611ab9565b6104f4565b6040516101979190611b14565b60405180910390f35b6101a8610517565b6040516101b59190611b3e565b60405180910390f35b6101d860048036038101906101d39190611b59565b610521565b6040516101e59190611b14565b60405180910390f35b6101f6610550565b6040516102039190611bc8565b60405180910390f35b610214610555565b6040516102219190611bfc565b60405180910390f35b610244600480360381019061023f9190611ab9565b610564565b6040516102519190611b14565b60405180910390f35b61026261059b565b005b61027e60048036038101906102799190611ab9565b6105ad565b005b6102886105c3565b6040516102959190611b14565b60405180910390f35b6102b860048036038101906102b39190611c17565b6105da565b6040516102c59190611b3e565b60405180910390f35b6102d6610622565b005b6102f260048036038101906102ed9190611c17565b610636565b6040516102ff9190611b3e565b60405180910390f35b610310610686565b005b61031a610698565b6040516103279190611c53565b60405180910390f35b6103386106c2565b60405161034591906119fe565b60405180910390f35b61036860048036038101906103639190611ab9565b610754565b6040516103759190611b14565b60405180910390f35b61039860048036038101906103939190611ab9565b6107cb565b6040516103a59190611b14565b60405180910390f35b6103c860048036038101906103c39190611c17565b6107ee565b005b6103e460048036038101906103df9190611cc6565b6108d1565b005b61040060048036038101906103fb9190611c17565b610a13565b60405161040d9190611b3e565b60405180910390f35b610430600480360381019061042b9190611d68565b610a2b565b60405161043d9190611b3e565b60405180910390f35b610460600480360381019061045b9190611c17565b610ab2565b005b60606003805461047190611dd7565b80601f016020809104026020016040519081016040528092919081815260200182805461049d90611dd7565b80156104ea5780601f106104bf576101008083540402835291602001916104ea565b820191906000526020600020905b8154815290600101906020018083116104cd57829003601f168201915b5050505050905090565b6000806104ff610b3b565b905061050c818585610b43565b600191505092915050565b6000600254905090565b60008061052c610b3b565b9050610539858285610d0e565b610544858585610d9a565b60019150509392505050565b600090565b600061055f61101b565b905090565b60008061056f610b3b565b90506105908185856105818589610a2b565b61058b9190611e38565b610b43565b600191505092915050565b6105a3611135565b6105ab6111b3565b565b6105b5611135565b6105bf8282611216565b5050565b6000600560009054906101000a900460ff16905090565b60008060008373ffffffffffffffffffffffffffffffffffffffff1673ffffffffffffffffffffffffffffffffffffffff168152602001908152602001600020549050919050565b61062a611135565b6106346000611376565b565b600061067f600660008473ffffffffffffffffffffffffffffffffffffffff1673ffffffffffffffffffffffffffffffffffffffff16815260200190815260200160002061143c565b9050919050565b61068e611135565b61069661144a565b565b6000600560019054906101000a900473ffffffffffffffffffffffffffffffffffffffff16905090565b6060600480546106d190611dd7565b80601f01602080910402602001604051908101604052809291908181526020018280546106fd90611dd7565b801561074a5780601f1061071f5761010080835404028352916020019161074a565b820191906000526020600020905b81548152906001019060200180831161072d57829003601f168201915b5050505050905090565b60008061075f610b3b565b9050600061076d8286610a2b565b9050838110156107b2576040517f08c379a00000000000000000000000000000000000000000000000000000000081526004016107a990611f00565b60405180910390fd5b6107bf8286868403610b43565b60019250505092915050565b6000806107d6610b3b565b90506107e3818585610d9a565b600191505092915050565b62015180600860008373ffffffffffffffffffffffffffffffffffffffff1673ffffffffffffffffffffffffffffffffffffffff1681526020019081526020016000205461083c9190611e38565b42101561087e576040517f08c379a000000000000000000000000000000000000000000000000000000000815260040161087590611f92565b60405180910390fd5b42600860008373ffffffffffffffffffffffffffffffffffffffff1673ffffffffffffffffffffffffffffffffffffffff168152602001908152602001600020819055506108ce30826064610d9a565b50565b83421115610914576040517f08c379a000000000000000000000000000000000000000000000000000000000815260040161090b90611ffe565b60405180910390fd5b60007f6e71edae12b1b97f4d1f60370fef10105fa2faae0126114a169c64845d6126c98888886109438c6114ad565b896040516020016109599695949392919061201e565b604051602081830303815290604052805190602001209050600061097c8261150b565b9050600061098c82878787611525565b90508973ffffffffffffffffffffffffffffffffffffffff168173ffffffffffffffffffffffffffffffffffffffff16146109fc576040517f08c379a00000000000000000000000000000000000000000000000000000000081526004016109f3906120cb565b60405180910390fd5b610a078a8a8a610b43565b50505050505050505050565b60086020528060005260406000206000915090505481565b6000600160008473ffffffffffffffffffffffffffffffffffffffff1673ffffffffffffffffffffffffffffffffffffffff16815260200190815260200160002060008373ffffffffffffffffffffffffffffffffffffffff1673ffffffffffffffffffffffffffffffffffffffff16815260200190815260200160002054905092915050565b610aba611135565b600073ffffffffffffffffffffffffffffffffffffffff168173ffffffffffffffffffffffffffffffffffffffff161415610b2a576040517f08c379a0000000000000000000000000000000000000000000000000000000008152600401610b219061215d565b60405180910390fd5b610b3381611376565b50565b505050565b600033905090565b600073ffffffffffffffffffffffffffffffffffffffff168373ffffffffffffffffffffffffffffffffffffffff161415610bb3576040517f08c379a0000000000000000000000000000000000000000000000000000000008152600401610baa906121ef565b60405180910390fd5b600073ffffffffffffffffffffffffffffffffffffffff168273ffffffffffffffffffffffffffffffffffffffff161415610c23576040517f08c379a0000000000000000000000000000000000000000000000000000000008152600401610c1a90612281565b60405180910390fd5b80600160008573ffffffffffffffffffffffffffffffffffffffff1673ffffffffffffffffffffffffffffffffffffffff16815260200190815260200160002060008473ffffffffffffffffffffffffffffffffffffffff1673ffffffffffffffffffffffffffffffffffffffff168152602001908152602001600020819055508173ffffffffffffffffffffffffffffffffffffffff168373ffffffffffffffffffffffffffffffffffffffff167f8c5be1e5ebec7d5bd14f71427d1e84f3dd0314c0f7b2291e5b200ac8c7c3b92583604051610d019190611b3e565b60405180910390a3505050565b6000610d1a8484610a2b565b90507fffffffffffffffffffffffffffffffffffffffffffffffffffffffffffffffff8114610d945781811015610d86576040517f08c379a0000000000000000000000000000000000000000000000000000000008152600401610d7d906122ed565b60405180910390fd5b610d938484848403610b43565b5b50505050565b600073ffffffffffffffffffffffffffffffffffffffff168373ffffffffffffffffffffffffffffffffffffffff161415610e0a576040517f08c379a0000000000000000000000000000000000000000000000000000000008152600401610e019061237f565b60405180910390fd5b600073ffffffffffffffffffffffffffffffffffffffff168273ffffffffffffffffffffffffffffffffffffffff161415610e7a576040517f08c379a0000000000000000000000000000000000000000000000000000000008152600401610e7190612411565b60405180910390fd5b610e85838383611550565b60008060008573ffffffffffffffffffffffffffffffffffffffff1673ffffffffffffffffffffffffffffffffffffffff16815260200190815260200160002054905081811015610f0b576040517f08c379a0000000000000000000000000000000000000000000000000000000008152600401610f02906124a3565b60405180910390fd5b8181036000808673ffffffffffffffffffffffffffffffffffffffff1673ffffffffffffffffffffffffffffffffffffffff16815260200190815260200160002081905550816000808573ffffffffffffffffffffffffffffffffffffffff1673ffffffffffffffffffffffffffffffffffffffff1681526020019081526020016000206000828254610f9e9190611e38565b925050819055508273ffffffffffffffffffffffffffffffffffffffff168473ffffffffffffffffffffffffffffffffffffffff167fddf252ad1be2c89b69c2b068fc378daa952ba7f163c4a11628f55a4df523b3ef846040516110029190611b3e565b60405180910390a3611015848484611568565b50505050565b60007f000000000000000000000000000000000000000000000000000000000000000073ffffffffffffffffffffffffffffffffffffffff163073ffffffffffffffffffffffffffffffffffffffff1614801561109757507f000000000000000000000000000000000000000000000000000000000000000046145b156110c4577f00000000000000000000000000000000000000000000000000000000000000009050611132565b61112f7f00000000000000000000000000000000000000000000000000000000000000007f00000000000000000000000000000000000000000000000000000000000000007f000000000000000000000000000000000000000000000000000000000000000061156d565b90505b90565b61113d610b3b565b73ffffffffffffffffffffffffffffffffffffffff1661115b610698565b73ffffffffffffffffffffffffffffffffffffffff16146111b1576040517f08c379a00000000000000000000000000000000000000000000000000000000081526004016111a89061250f565b60405180910390fd5b565b6111bb6115a7565b6000600560006101000a81548160ff0219169083151502179055507f5db9ee0a495bf2e6ff9c91a7834c1ba4fdd244a5e8aa4e537bd38aeae4b073aa6111ff610b3b565b60405161120c9190611c53565b60405180910390a1565b600073ffffffffffffffffffffffffffffffffffffffff168273ffffffffffffffffffffffffffffffffffffffff161415611286576040517f08c379a000000000000000000000000000000000000000000000000000000000815260040161127d9061257b565b60405180910390fd5b61129260008383611550565b80600260008282546112a49190611e38565b92505081905550806000808473ffffffffffffffffffffffffffffffffffffffff1673ffffffffffffffffffffffffffffffffffffffff16815260200190815260200160002060008282546112f99190611e38565b925050819055508173ffffffffffffffffffffffffffffffffffffffff16600073ffffffffffffffffffffffffffffffffffffffff167fddf252ad1be2c89b69c2b068fc378daa952ba7f163c4a11628f55a4df523b3ef8360405161135e9190611b3e565b60405180910390a361137260008383611568565b5050565b6000600560019054906101000a900473ffffffffffffffffffffffffffffffffffffffff16905081600560016101000a81548173ffffffffffffffffffffffffffffffffffffffff021916908373ffffffffffffffffffffffffffffffffffffffff1602179055508173ffffffffffffffffffffffffffffffffffffffff168173ffffffffffffffffffffffffffffffffffffffff167f8be0079c531659141344cd1fd0a4f28419497f9722a3daafe3b4186f6b6457e060405160405180910390a35050565b600081600001549050919050565b6114526115f0565b6001600560006101000a81548160ff0219169083151502179055507f62e78cea01bee320cd4e420270b5ea74000d11b0c9f74754ebdbfc544b05a258611496610b3b565b6040516114a39190611c53565b60405180910390a1565b600080600660008473ffffffffffffffffffffffffffffffffffffffff1673ffffffffffffffffffffffffffffffffffffffff16815260200190815260200160002090506114fa8161143c565b91506115058161163a565b50919050565b600061151e61151861101b565b83611650565b9050919050565b600080600061153687878787611683565b9150915061154381611790565b8192505050949350505050565b6115586115f0565b611563838383610b36565b505050565b505050565b6000838383463060405160200161158895949392919061259b565b6040516020818303038152906040528051906020012090509392505050565b6115af6105c3565b6115ee576040517f08c379a00000000000000000000000000000000000000000000000000000000081526004016115e59061263a565b60405180910390fd5b565b6115f86105c3565b15611638576040517f08c379a000000000000000000000000000000000000000000000000000000000815260040161162f906126a6565b60405180910390fd5b565b6001816000016000828254019250508190555050565b6000828260405160200161166592919061273e565b60405160208183030381529060405280519060200120905092915050565b6000807f7fffffffffffffffffffffffffffffff5d576e7357a4501ddfe92f46681b20a08360001c11156116be576000600391509150611787565b601b8560ff16141580156116d65750601c8560ff1614155b156116e8576000600491509150611787565b60006001878787876040516000815260200160405260405161170d9493929190612775565b6020604051602081039080840390855afa15801561172f573d6000803e3d6000fd5b505050602060405103519050600073ffffffffffffffffffffffffffffffffffffffff168173ffffffffffffffffffffffffffffffffffffffff16141561177e57600060019250925050611787565b80600092509250505b94509492505050565b600060048111156117a4576117a36127ba565b5b8160048111156117b7576117b66127ba565b5b14156117c257611962565b600160048111156117d6576117d56127ba565b5b8160048111156117e9576117e86127ba565b5b141561182a576040517f08c379a000000000000000000000000000000000000000000000000000000000815260040161182190612835565b60405180910390fd5b6002600481111561183e5761183d6127ba565b5b816004811115611851576118506127ba565b5b1415611892576040517f08c379a0000000000000000000000000000000000000000000000000000000008152600401611889906128a1565b60405180910390fd5b600360048111156118a6576118a56127ba565b5b8160048111156118b9576118b86127ba565b5b14156118fa576040517f08c379a00000000000000000000000000000000000000000000000000000000081526004016118f190612933565b60405180910390fd5b60048081111561190d5761190c6127ba565b5b8160048111156119205761191f6127ba565b5b1415611961576040517f08c379a0000000000000000000000000000000000000000000000000000000008152600401611958906129c5565b60405180910390fd5b5b50565b600081519050919050565b600082825260208201905092915050565b60005b8381101561199f578082015181840152602081019050611984565b838111156119ae576000848401525b50505050565b6000601f19601f8301169050919050565b60006119d082611965565b6119da8185611970565b93506119ea818560208601611981565b6119f3816119b4565b840191505092915050565b60006020820190508181036000830152611a1881846119c5565b905092915050565b600080fd5b600073ffffffffffffffffffffffffffffffffffffffff82169050919050565b6000611a5082611a25565b9050919050565b611a6081611a45565b8114611a6b57600080fd5b50565b600081359050611a7d81611a57565b92915050565b6000819050919050565b611a9681611a83565b8114611aa157600080fd5b50565b600081359050611ab381611a8d565b92915050565b60008060408385031215611ad057611acf611a20565b5b6000611ade85828601611a6e565b9250506020611aef85828601611aa4565b9150509250929050565b60008115159050919050565b611b0e81611af9565b82525050565b6000602082019050611b296000830184611b05565b92915050565b611b3881611a83565b82525050565b6000602082019050611b536000830184611b2f565b92915050565b600080600060608486031215611b7257611b71611a20565b5b6000611b8086828701611a6e565b9350506020611b9186828701611a6e565b9250506040611ba286828701611aa4565b9150509250925092565b600060ff82169050919050565b611bc281611bac565b82525050565b6000602082019050611bdd6000830184611bb9565b92915050565b6000819050919050565b611bf681611be3565b82525050565b6000602082019050611c116000830184611bed565b92915050565b600060208284031215611c2d57611c2c611a20565b5b6000611c3b84828501611a6e565b91505092915050565b611c4d81611a45565b82525050565b6000602082019050611c686000830184611c44565b92915050565b611c7781611bac565b8114611c8257600080fd5b50565b600081359050611c9481611c6e565b92915050565b611ca381611be3565b8114611cae57600080fd5b50565b600081359050611cc081611c9a565b92915050565b600080600080600080600060e0888a031215611ce557611ce4611a20565b5b6000611cf38a828b01611a6e565b9750506020611d048a828b01611a6e565b9650506040611d158a828b01611aa4565b9550506060611d268a828b01611aa4565b9450506080611d378a828b01611c85565b93505060a0611d488a828b01611cb1565b92505060c0611d598a828b01611cb1565b91505092959891949750929550565b60008060408385031215611d7f57611d7e611a20565b5b6000611d8d85828601611a6e565b9250506020611d9e85828601611a6e565b9150509250929050565b7f4e487b7100000000000000000000000000000000000000000000000000000000600052602260045260246000fd5b60006002820490506001821680611def57607f821691505b60208210811415611e0357611e02611da8565b5b50919050565b7f4e487b7100000000000000000000000000000000000000000000000000000000600052601160045260246000fd5b6000611e4382611a83565b9150611e4e83611a83565b9250827fffffffffffffffffffffffffffffffffffffffffffffffffffffffffffffffff03821115611e8357611e82611e09565b5b828201905092915050565b7f45524332303a2064656372656173656420616c6c6f77616e63652062656c6f7760008201527f207a65726f000000000000000000000000000000000000000000000000000000602082015250565b6000611eea602583611970565b9150611ef582611e8e565b604082019050919050565b60006020820190508181036000830152611f1981611edd565b9050919050565b7f4f6e6c79206f6e6520726571756573742063616e206265206d6164652070657260008201527f2064617900000000000000000000000000000000000000000000000000000000602082015250565b6000611f7c602483611970565b9150611f8782611f20565b604082019050919050565b60006020820190508181036000830152611fab81611f6f565b9050919050565b7f45524332305065726d69743a206578706972656420646561646c696e65000000600082015250565b6000611fe8601d83611970565b9150611ff382611fb2565b602082019050919050565b6000602082019050818103600083015261201781611fdb565b9050919050565b600060c0820190506120336000830189611bed565b6120406020830188611c44565b61204d6040830187611c44565b61205a6060830186611b2f565b6120676080830185611b2f565b61207460a0830184611b2f565b979650505050505050565b7f45524332305065726d69743a20696e76616c6964207369676e61747572650000600082015250565b60006120b5601e83611970565b91506120c08261207f565b602082019050919050565b600060208201905081810360008301526120e4816120a8565b9050919050565b7f4f776e61626c653a206e6577206f776e657220697320746865207a65726f206160008201527f6464726573730000000000000000000000000000000000000000000000000000602082015250565b6000612147602683611970565b9150612152826120eb565b604082019050919050565b600060208201905081810360008301526121768161213a565b9050919050565b7f45524332303a20617070726f76652066726f6d20746865207a65726f2061646460008201527f7265737300000000000000000000000000000000000000000000000000000000602082015250565b60006121d9602483611970565b91506121e48261217d565b604082019050919050565b60006020820190508181036000830152612208816121cc565b9050919050565b7f45524332303a20617070726f766520746f20746865207a65726f20616464726560008201527f7373000000000000000000000000000000000000000000000000000000000000602082015250565b600061226b602283611970565b91506122768261220f565b604082019050919050565b6000602082019050818103600083015261229a8161225e565b9050919050565b7f45524332303a20696e73756666696369656e7420616c6c6f77616e6365000000600082015250565b60006122d7601d83611970565b91506122e2826122a1565b602082019050919050565b60006020820190508181036000830152612306816122ca565b9050919050565b7f45524332303a207472616e736665722066726f6d20746865207a65726f20616460008201527f6472657373000000000000000000000000000000000000000000000000000000602082015250565b6000612369602583611970565b91506123748261230d565b604082019050919050565b600060208201905081810360008301526123988161235c565b9050919050565b7f45524332303a207472616e7366657220746f20746865207a65726f206164647260008201527f6573730000000000000000000000000000000000000000000000000000000000602082015250565b60006123fb602383611970565b91506124068261239f565b604082019050919050565b6000602082019050818103600083015261242a816123ee565b9050919050565b7f45524332303a207472616e7366657220616d6f756e742065786365656473206260008201527f616c616e63650000000000000000000000000000000000000000000000000000602082015250565b600061248d602683611970565b915061249882612431565b604082019050919050565b600060208201905081810360008301526124bc81612480565b9050919050565b7f4f776e61626c653a2063616c6c6572206973206e6f7420746865206f776e6572600082015250565b60006124f9602083611970565b9150612504826124c3565b602082019050919050565b60006020820190508181036000830152612528816124ec565b9050919050565b7f45524332303a206d696e7420746f20746865207a65726f206164647265737300600082015250565b6000612565601f83611970565b91506125708261252f565b602082019050919050565b6000602082019050818103600083015261259481612558565b9050919050565b600060a0820190506125b06000830188611bed565b6125bd6020830187611bed565b6125ca6040830186611bed565b6125d76060830185611b2f565b6125e46080830184611c44565b9695505050505050565b7f5061757361626c653a206e6f7420706175736564000000000000000000000000600082015250565b6000612624601483611970565b915061262f826125ee565b602082019050919050565b6000602082019050818103600083015261265381612617565b9050919050565b7f5061757361626c653a2070617573656400000000000000000000000000000000600082015250565b6000612690601083611970565b915061269b8261265a565b602082019050919050565b600060208201905081810360008301526126bf81612683565b9050919050565b600081905092915050565b7f1901000000000000000000000000000000000000000000000000000000000000600082015250565b60006127076002836126c6565b9150612712826126d1565b600282019050919050565b6000819050919050565b61273861273382611be3565b61271d565b82525050565b6000612749826126fa565b91506127558285612727565b6020820191506127658284612727565b6020820191508190509392505050565b600060808201905061278a6000830187611bed565b6127976020830186611bb9565b6127a46040830185611bed565b6127b16060830184611bed565b95945050505050565b7f4e487b7100000000000000000000000000000000000000000000000000000000600052602160045260246000fd5b7f45434453413a20696e76616c6964207369676e61747572650000000000000000600082015250565b600061281f601883611970565b915061282a826127e9565b602082019050919050565b6000602082019050818103600083015261284e81612812565b9050919050565b7f45434453413a20696e76616c6964207369676e6174757265206c656e67746800600082015250565b600061288b601f83611970565b915061289682612855565b602082019050919050565b600060208201905081810360008301526128ba8161287e565b9050919050565b7f45434453413a20696e76616c6964207369676e6174757265202773272076616c60008201527f7565000000000000000000000000000000000000000000000000000000000000602082015250565b600061291d602283611970565b9150612928826128c1565b604082019050919050565b6000602082019050818103600083015261294c81612910565b9050919050565b7f45434453413a20696e76616c6964207369676e6174757265202776272076616c60008201527f7565000000000000000000000000000000000000000000000000000000000000602082015250565b60006129af602283611970565b91506129ba82612953565b604082019050919050565b600060208201905081810360008301526129de816129a2565b905091905056fea264697066735822122067b47c5bd9fc419cbdef237b2ed1ad65c72e76ad03c96293fa25784d16753d5d64736f6c63430008090033",
  "immutableReferences": {
    "3680": [
      {
        "length": 32,
        "start": 4254
      }
    ],
    "3682": [
      {
        "length": 32,
        "start": 4213
      }
    ],
    "3684": [
      {
        "length": 32,
        "start": 4127
      }
    ],
    "3686": [
      {
        "length": 32,
        "start": 4330
      }
    ],
    "3688": [
      {
        "length": 32,
        "start": 4363
      }
    ],
    "3690": [
      {
        "length": 32,
        "start": 4297
      }
    ]
  },
  "source": "// SPDX-License-Identifier: MIT\npragma solidity ^0.8.9;\n\nimport \"@openzeppelin/contracts/token/ERC20/ERC20.sol\";\nimport \"@openzeppelin/contracts/security/Pausable.sol\";\nimport \"@openzeppelin/contracts/access/Ownable.sol\";\nimport \"@openzeppelin/contracts/token/ERC20/extensions/draft-ERC20Permit.sol\";\n\ncontract RocketToken is ERC20, Pausable, Ownable, ERC20Permit {\n\n    mapping(address => uint) public lastFaucetRequest;\n\n    constructor() ERC20(\"RocketToken\", \"ROCKET\") ERC20Permit(\"RocketToken\") {\n        _mint(msg.sender, 1000);\n        _mint(address(this), 1000000000);\n    }\n\n    function pause() public onlyOwner {\n        _pause();\n    }\n\n    function unpause() public onlyOwner {\n        _unpause();\n    }\n\n    function mint(address to, uint256 amount) public onlyOwner {\n        _mint(to, amount);\n    }\n\n    function faucet(address requester) public {\n        require(block.timestamp >= lastFaucetRequest[requester] + 86400, \"Only one request can be made per day\");\n        lastFaucetRequest[requester] = block.timestamp;\n        _transfer(address(this), requester, 100);\n    }\n\n    function decimals() public view virtual override returns (uint8) {\n        return 0;\n    }\n\n    function _beforeTokenTransfer(address from, address to, uint256 amount)\n        internal\n        whenNotPaused\n        override\n    {\n        super._beforeTokenTransfer(from, to, amount);\n    }\n}",
  "sourcePath": "/home/ubuntu/RocketElevatorsExpressAPI/contracts/RocketToken.sol",
  "compiler": {
    "name": "solc",
    "version": "0.8.9+commit.e5eed63a.Emscripten.clang"
  },
  "schemaVersion": "3.4.9",
  "updatedAt": "2022-08-23T21:04:21.570Z",
  "devdoc": {
    "kind": "dev",
    "methods": {
      "DOMAIN_SEPARATOR()": {
        "details": "See {IERC20Permit-DOMAIN_SEPARATOR}."
      },
      "allowance(address,address)": {
        "details": "See {IERC20-allowance}."
      },
      "approve(address,uint256)": {
        "details": "See {IERC20-approve}. NOTE: If `amount` is the maximum `uint256`, the allowance is not updated on `transferFrom`. This is semantically equivalent to an infinite approval. Requirements: - `spender` cannot be the zero address."
      },
      "balanceOf(address)": {
        "details": "See {IERC20-balanceOf}."
      },
      "decimals()": {
        "details": "Returns the number of decimals used to get its user representation. For example, if `decimals` equals `2`, a balance of `505` tokens should be displayed to a user as `5.05` (`505 / 10 ** 2`). Tokens usually opt for a value of 18, imitating the relationship between Ether and Wei. This is the value {ERC20} uses, unless this function is overridden; NOTE: This information is only used for _display_ purposes: it in no way affects any of the arithmetic of the contract, including {IERC20-balanceOf} and {IERC20-transfer}."
      },
      "decreaseAllowance(address,uint256)": {
        "details": "Atomically decreases the allowance granted to `spender` by the caller. This is an alternative to {approve} that can be used as a mitigation for problems described in {IERC20-approve}. Emits an {Approval} event indicating the updated allowance. Requirements: - `spender` cannot be the zero address. - `spender` must have allowance for the caller of at least `subtractedValue`."
      },
      "increaseAllowance(address,uint256)": {
        "details": "Atomically increases the allowance granted to `spender` by the caller. This is an alternative to {approve} that can be used as a mitigation for problems described in {IERC20-approve}. Emits an {Approval} event indicating the updated allowance. Requirements: - `spender` cannot be the zero address."
      },
      "name()": {
        "details": "Returns the name of the token."
      },
      "nonces(address)": {
        "details": "See {IERC20Permit-nonces}."
      },
      "owner()": {
        "details": "Returns the address of the current owner."
      },
      "paused()": {
        "details": "Returns true if the contract is paused, and false otherwise."
      },
      "permit(address,address,uint256,uint256,uint8,bytes32,bytes32)": {
        "details": "See {IERC20Permit-permit}."
      },
      "renounceOwnership()": {
        "details": "Leaves the contract without owner. It will not be possible to call `onlyOwner` functions anymore. Can only be called by the current owner. NOTE: Renouncing ownership will leave the contract without an owner, thereby removing any functionality that is only available to the owner."
      },
      "symbol()": {
        "details": "Returns the symbol of the token, usually a shorter version of the name."
      },
      "totalSupply()": {
        "details": "See {IERC20-totalSupply}."
      },
      "transfer(address,uint256)": {
        "details": "See {IERC20-transfer}. Requirements: - `to` cannot be the zero address. - the caller must have a balance of at least `amount`."
      },
      "transferFrom(address,address,uint256)": {
        "details": "See {IERC20-transferFrom}. Emits an {Approval} event indicating the updated allowance. This is not required by the EIP. See the note at the beginning of {ERC20}. NOTE: Does not update the allowance if the current allowance is the maximum `uint256`. Requirements: - `from` and `to` cannot be the zero address. - `from` must have a balance of at least `amount`. - the caller must have allowance for ``from``'s tokens of at least `amount`."
      },
      "transferOwnership(address)": {
        "details": "Transfers ownership of the contract to a new account (`newOwner`). Can only be called by the current owner."
      }
    },
    "version": 1
  },
  "userdoc": {
    "kind": "user",
    "methods": {},
    "version": 1
  }
}